:020000040800F2
:1000000000000220051C0008AD1A0008B51A0008FF
:10001000BD1A0008C51A0008CD1A0008000000002B
:10002000000000000000000000000000D51A0008D9
:10003000E31A000800000000F11A0008011B000884
:10004000551C0008551C0008551C0008551C0008CC
:10005000551C0008551C00081D1B00082B1B000820
:10006000551C0008551C0008551C0008551C0008AC
:10007000551C0008551C0008551C0008551C00089C
:10008000551C0008551C0008551C0008551C00088C
:10009000391B0008551C0008551C0008551C000899
:1000A000551C0008551C0008551C0008551C00086C
:1000B000551C0008551C0008551C0008551C00085C
:1000C000551C0008551C0008551C0008551C00084C
:1000D000551C0008551C0008551C00084D1B000845
:1000E000551C0008551C0008551C0008551C00082C
:1000F000551C0008551C0008551C0008551C00081C
:10010000551C0008551C0008551C0008551C00080B
:10011000551C0008551C0008551C0008551C0008FB
:10012000551C0008551C0008551C0008551C0008EB
:10013000551C00080000000000000000551C0008CD
:10014000611B0008551C0008551C0008551C0008C0
:10015000551C0008551C0008551C0008551C0008BB
:10016000551C0008551C0008551C0008551C0008AB
:10017000551C0008551C000800000000000000008D
:08018000551C0008551C000885
:1001900010B5054C237833B9044B13B10448AFF3C1
:1001A00000800123237010BD6400002000000000C7
:1001B000445C000808B5034B1BB103490348AFF387
:1001C000008008BD0000000068000020445C0008BA
:1001D00001F0FF01102A2BDB10F0070F08D010F8F8
:1001E000013B013A8B422DD010F0070F42B3F6D1FC
:1001F000F0B441EA012141EA014122F007047FF015
:1002000000070023F0E80256083C85EA010586EA6B
:10021000010685FA47F5A3FA87F586FA47F6A5FAA7
:1002200087F68EB9EED1F0BC01F0FF0102F00702B3
:1002300032B110F8013B013A83EA010313B1F8D15E
:100240000020704701387047002D06BF354603383F
:10025000073815F0010F07D1013015F4807F02BF78
:10026000013015F4C03F0130F0BC0138704700BFC9
:1002700053B94AB9002908BF00281CBF4FF0FF310D
:100280004FF0FF3000F088B9ADF1080C6DE904CEF5
:1002900000F006F8DDF804E0DDE9022304B0704761
:1002A0002DE9F047089D8E4604468846002B4AD12A
:1002B0008A42174662D9B2FA82F64EB1C6F12003DD
:1002C00001FA06F820FA03F3B74043EA0808B440FD
:1002D0004FEA174E1FFA87FCB8FBFEF1230C0EFB0A
:1002E000118843EA084301FB0CF29A4209D9FB1832
:1002F00001F1FF3080F0EA809A4240F2E780023953
:100300003B449A1AA3B2B2FBFEF00EFB102243EA62
:10031000024300FB0CFC9C4509D9FB1800F1FF329D
:1003200080F0D6809C4540F2D3803B44023840EABE
:100330000140A3EB0C0300211DB1F3400022C5E9ED
:100340000032BDE8F0878B4205D90DB1C5E9000147
:1003500000210846F5E7B3FA83F1002946D1734539
:1003600002D3824200F20581841A6EEB030201205F
:100370009046002DE5D0C5E90048E2E7002A00F0EC
:100380009080B2FA82F6002E40F0A4808A1A030C04
:100390004FEA174E80B2BCB20121B2FBFEFC0EFB4D
:1003A0001C2243EA024304FB0CF29A4207D9FB18D1
:1003B0000CF1FF3802D29A4200F2E080C4469B1A48
:1003C000B3FBFEF20EFB123340EA034302FB04F4DC
:1003D0009C4207D9FB1802F1FF3002D29C4200F286
:1003E000CA8002461B1B42EA0C40A5E7C1F1200669
:1003F0008B4022FA06F71F430EFA01F420FA06F3A7
:100400002EFA06FE4FEA1749234300FA01F81FFAB5
:1004100087FCBEFBF9F01C0C09FB10EE44EA0E440D
:1004200000FB0CFEA64502FA01F209D93C1900F1C5
:10043000FF3A80F09C80A64540F2998002383C4407
:10044000A4EB0E041FFA83FEB4FBF9F309FB13447B
:100450004EEA044403FB0CFCA44508D93C1903F103
:10046000FF3E80F08280A4457FD9023B3C4443EAB2
:100470000040A4EB0C04A0FB02EC64457346E1468B
:1004800062D35FD05DB1B8EB030264EB090404FAF8
:1004900006F622FA01F31E43CC40C5E900640021B0
:1004A0004FE7B1FBF2FC010C41EA0E4180B240EA99
:1004B00001423B4638463C46B846BE462026B1FB84
:1004C000F7F1A2EB080241EA0C4166E7014618E7A2
:1004D00010462CE7C6F120022EFA02F3B740B140D5
:1004E00020FA02F24FEA174E0A43B3FBFEF8BCB201
:1004F0000EFB1833110C41EA034108FB04F9B0402C
:1005000089454FEA104380B23ED9791808F1FF3C83
:1005100001D289451FD8A1EB0901B1FBFEF909FB06
:1005200004F80EFB191192B242EA0142424529D267
:10053000BA1809F1FF31C4D24245C2D2A9F1020171
:100540003A44BEE7F0459DD2BEEB02036CEB070CCC
:100550000138E14696E7A7EB09094944A8F1020CE6
:10056000B1FBFEF909FB04F8DBE773467FE7504671
:1005700066E70846FDE63B44023A33E7ACF1020C7D
:100580003B441CE749469CE7A1EB0901C446B1FB8B
:10059000FEF909FB04F8C4E7704700BF80B487B0D8
:1005A00000AFF860B9601346FB71FB68FA791A7006
:1005B0000123FB750BE0FB7D013BBA681A44FB7D10
:1005C000F9680B4412781A70FB7D0133FB75FA7DD4
:1005D000FB799A42EFD90123BB750AE0FA79BB7D1A
:1005E00013441A46FB68134455221A70BB7D01332D
:1005F000BB75BA7DFB79C3F108039A42EEDB00BFFD
:1006000000BF1C37BD465DF8047B704780B586B0DF
:1006100000AFF860B9601346FB80FB88B3F5805FDC
:100620000DD3BB681B78403BDAB2BB681A70BB685D
:100630001A781023B968F86800F026F923E0FB88DF
:100640001B0A9BB25BB203F00F035BB243F01003D3
:100650005BB2DAB2FB681A70FB680133FA88D2B277
:100660001A700223FB750BE0FB7D023BBA681A444B
:10067000FB7DF9680B4412781A70FB7D0133FB7522
:10068000FB7D072BF0D91837BD4680BD80B485B0FF
:1006900000AF7860164B1A78164B1B789A4203D934
:1006A0007B6832221A7002E07B6830221A707B6805
:1006B0000133104A12781A707B6802330E4A12789E
:1006C0001A700323FB7307E0FB7B7A6813445522FF
:1006D0001A70FB7B0133FB73FB7B072BF4D9044BB4
:1006E00001221A7000BF1437BD465DF8047B7047C5
:1006F00004120020040000200500002080B487B010
:1007000000AFF860B9601346FB711F4B1B785BB2FA
:1007100003F00F035BB243F020035BB2DAB2FB6875
:100720001A700123FB750BE0FB7D013BBA681A448C
:10073000FB7DF9680B4412781A70FB7D0133FB7561
:10074000FA7DFB799A42EFD90123BB750AE0FA7969
:10075000BB7D13441A46FB68134455221A70BB7DB7
:100760000133BB75BA7DFB79C3F108039A42EEDB16
:10077000054B1B780133DAB2034B1A7000BF1C37EC
:10078000BD465DF8047B70470412002080B586B03A
:1007900000AFF860B9601346FB800023FB8234E0B1
:1007A000FA88FB8AD31A072BA8BF07237B75FB8A1D
:1007B000BA6813447A7D1946F868FFF79FFFFB6813
:1007C000164A934209D1F86800F048F8144B1B68A8
:1007D0009BB2F968184600F06FFFFB68114A93421C
:1007E00009D1F86800F024F80F4B1B689BB2F96838
:1007F000184600F061FF7B7D9AB2FB8A1344FB82AE
:100800000A4B1B78184601F099FAFA8AFB889A423B
:10081000C6D300BF00BF1837BD4680BDE41100201D
:100820005C010020F41100209C0100200500002044
:1008300080B584B000AF786007F10C03044A054925
:10084000054802F08BF800BF1037BD4680BD00BFE1
:10085000F41100209C010020F000002080B584B03D
:1008600000AF786007F10C03044A0549054802F01F
:1008700075F800BF1037BD4680BD00BFE4110020F1
:100880005C010020C800002080B584B000AFF86093
:10089000B96011461A460B46FB711346BB71BB6823
:1008A0007F221A70BB680133FA791A70BB68023371
:1008B000BA791A700322B968F868FFF76FFE00BFB3
:1008C0001037BD4680BD000080B584B000AF1F4B1F
:1008D0005B78FB731D4B9B78BB731C4BDB787B7386
:1008E0001A4B1B783B733B7B032B06D0FA7B391DDD
:1008F00013231748FFF7C8FF24E0BB7B012B1BD154
:100900007B7B232B18D1FB7B4033DBB23B71012374
:100910007B712323BB710F4B1B881B0A9BB2DBB27D
:10092000FB710C4B1B88DBB23B723B1D0522194649
:100930000748FFF733FE05E0FA7B391D31230448F1
:10094000FFF7A2FF1037BD4680BD00BFEC110020AD
:10095000E41100200000002080B582B000AF002329
:100960007B6020E02A4801F051FA4FF0FF3128481F
:1009700001F01EFB264801F0A6FB38603B68DAB2A6
:10098000244B19687B6801FA03F3DBB25340D9B2F8
:10099000214A7B6813440A461A70012001F0CEF9FF
:1009A0007B6801337B607B68052BDBDD1A4B1A7893
:1009B000194B5B785340DAB2184B1A70164B5A78C1
:1009C000154B9B781344DAB2144B5A70124B9A7839
:1009D000114BDB785340DAB2104B9A700E4BDA7839
:1009E0000D4B1B781344DAB20C4BDA700A4B1B79AF
:1009F00023F00F03DAB2094B1A71074B5B7903F04E
:100A00000F03DAB2054B5A7100BF0837BD4680BDEF
:100A100080000020081200200C1200201412002078
:100A200080B582B000AF786006220749786804F08C
:100A30007BFC0346002B01D1012300E00023184674
:100A40000837BD4680BD00BF1412002080B584B0B9
:100A500000AF834B1B781B09DBB2002B4FD1804BBF
:100A60005A78804B1A707E4B9B78FB727C4B1B78BC
:100A7000BB72FB7A012B2FD1BB7A022B07D0794BAB
:100A80001A78394613237848FFF7FEFEE4E0774BE7
:100A90001B78002B07D0734B1A7839461023724805
:100AA000FFF7F2FED8E0724B01221A70FFF754FFF5
:100AB0006C4B1B784033DBB23B7001237B706D4A7B
:100AC000BB1C1168196092889A803B46082219461F
:100AD0006548FFF79BFDBFE0FB7A022B07D1614B16
:100AE0001A78394613236048FFF7CEFEB4E05D4B19
:100AF0001A78394610235C48FFF7C6FEACE0584B25
:100B00001B781B09DBB2012B4DD1554B1B781BB257
:100B10001B021BB203F470631AB2514B5B781BB219
:100B200013431BB2FB814E4B9B787B734C4BDB78A2
:100B30003B733B7B022B2FD1FB89082B15D07A7B93
:100B4000394613234848FFF79FFE494B1B78002B7B
:100B500014BF01230023DBB283F00103DBB203F0F7
:100B60000103DAB2424B1A7076E0414B1B7883F0F6
:100B70000103DBB2002B06D07A7B394610233A48BA
:100B8000FFF782FE68E0364B5B681A463A4B1A6004
:100B90003548FFF77BFD06E07A7B39461023324863
:100BA000FFF772FE58E02E4B1B781B09DBB2022BBD
:100BB00042D12B4BB3F801309BB22F4A93802B4B81
:100BC0001B78002B07D0274B1A783946102326486C
:100BD000FFF75AFE40E02848FFF722FF034683F064
:100BE0000103DBB2002B16D01E4B1A783946352391
:100BF0001D48FFF749FE1E4B1B78002B14BF012335
:100C00000023DBB283F00103DBB203F00103DAB2AD
:100C1000174B1A7020E0134B1B784033DBB23B704C
:100C200002237B703B46022219460F48FFF7B6FCB1
:100C30000E4B01221A700FE0094B1B781B09DBB227
:100C4000032B09D10B4B9B889BB23B803B46022276
:100C500019460548FFF79AFD1037BD4680BD00BF15
:100C6000EC11002022120020E411002024120020A8
:100C7000231200200C1200201C12002080B584B02A
:100C800000AF2B4B1B78FB73294B5B78BB73284B56
:100C90009B787B73264BDB783B73254B1B791BB210
:100CA0001B021AB2224B5B791BB213431BB27B812E
:100CB000204B1B7883F00103DBB2002B06D0BA7BFC
:100CC000394633231C48FFF7DFFD2EE0FB7B052B65
:100CD00006D0BA7B394613231748FFF7D5FD24E029
:100CE0007B7B012B02D13B7B232B06D0BA7B394681
:100CF00031231148FFF7C8FD17E07B89B3F5006F7A
:100D000006D3BA7B394610230B48FFF7BDFD0CE034
:100D10000A4A7B891380BB7B4033DBB23B703B4686
:100D2000012219460448FFF739FC1037BD4680BD43
:100D3000EC11002024120020E4110020000000200B
:100D400080B58CB000AF786007F1080307F110029E
:100D50000021786801F0DDFE7B681B68444A9342FD
:100D60003ED1444B1B78012B3AD1002387F82F301A
:100D70000EE097F82F2097F82F3030323A4412F8CF
:100D8000281C3D4AD15497F82F30013387F82F3073
:100D900097F82F30072BECD9374B1B781B09DBB2A8
:100DA000002B02D1334B02221A70334B1B781B09E4
:100DB000DBB2012B02D12F4B08221A702E4B1B786D
:100DC0001B09DBB2022B02D12A4B0A221A702A4BD2
:100DD0001B781B09DBB2032B02D1264B06221A70AB
:100DE0007B681B68254A93423ED1224B1B78042B1B
:100DF0003AD1002387F82E300EE097F82E2097F88E
:100E00002E3030323A4412F8281C1D4AD15497F83B
:100E10002E30013387F82E3097F82E30072BECD97F
:100E2000174B1B781B09DBB2002B02D1114B0022A0
:100E30001A70134B1B781B09DBB2012B02D10D4B2F
:100E400005221A700E4B1B781B09DBB2022B02D154
:100E5000084B00221A700A4B1B781B09DBB2032BCC
:100E600002D1044B09221A7000BF3037BD4680BD45
:100E70000064004005120020EC11002000680040D2
:100E8000FC11002080B582B000AF0346FB71FB79F6
:100E9000002B05D001220121064802F0E1FC04E00C
:100EA00000220121034802F0DBFC00BF0837BD46E9
:100EB00080BD00BF0004024080B582B000AF034691
:100EC000FB80FB88022B16D100F02CFF02460C4B56
:100ED0001B68D31AC82B0ED900F024FF0346084A1A
:100EE0001360084800F0CEFB00F038FB00F082FBF6
:100EF000054800F0C7FB00BF0837BD4680BD00BFF6
:100F0000281200205C5C0008645C000880B582B098
:100F100000AF0023FB800023BB8000F09DFE00F0AB
:100F20002DF900F081FA00F0E5F900F01BFA00F06D
:100F300051FA00F08DF900F011FB00F05BFB834BE0
:100F40001B68DA68814B1B6842F02002DA600122DC
:100F50007F497E4803F02DFA7E4B1B781846FFF739
:100F600091FF7D4B1B780A2BF6D801A252F823F093
:100F70009D0F0008590F0008771000082511000880
:100F8000590F000833100008BB10000809100008B2
:100F9000E510000855100008051100086F4B1B886C
:100FA000002B00F0CD80C82000F0C8FE6C4B1B78F1
:100FB000272B0BD16A4B5B78022B07D1674B1B8821
:100FC000082B03D1644B07221A70BDE0634B1B88CA
:100FD000DBB21A4662496348FFF7E0FA5E4B012232
:100FE0001A706048FFF724FC5F4B1B689BB25D4999
:100FF000184600F061FB14220021594804F0A4F9BE
:10100000564B00221A809BE0534B01221A70534B1F
:101010001B881A4652495348FFF7F8FA5148FFF720
:1010200007FC514B1B689BB24E49184600F044FB2D
:101030008AE0494B01221A704A48FFF727FB4948CA
:10104000FFF7F6FB484B1B689BB24649184600F079
:1010500033FB79E0404B01221A7002224349414898
:10106000FFF794FB142200213D4804F06DF93B4B3F
:1010700000221A8068E03E4B5B782E2B12D02E2B7C
:1010800016DC222B02D0272B06D011E0324B032294
:101090001A70FFF719FC0FE02F4B03221A70FFF7AD
:1010A000D5FC09E02C4B03221A70FFF7E7FD03E0A3
:1010B000294B00221A7000BF46E02D4B1B7803F02D
:1010C0000F03022B02D1244B00221A70284B1B78ED
:1010D00003F00F03002B35D11F4B04221A70FFF7CA
:1010E000B5FC2FE01C4B04221A70FFF7AFFC21481F
:1010F000FFF7B4FB204B1B689BB21E49184600F05B
:10110000DBFA21E0144B04221A70FFF79FFC194808
:10111000FFF7A4FB184B1B689BB21649184600F05A
:10112000CBFA11E00C4B04221A701248FFF796FB21
:10113000114B1B689BB20F49184600F0BDFA03E043
:1011400000BF09E700BF07E706E700BF180100205E
:10115000E01100202412002005120020DC010020F4
:10116000E0010020F41100209C010020E601002095
:10117000EC110020E41100205C01002080B594B047
:1011800000AF07F1200330220021184604F0DCF8FC
:1011900007F10C0300221A605A609A60DA601A6143
:1011A0000023BB60284B1B6C274A43F08053136419
:1011B000254B1B6C03F08053BB60BB6800237B6036
:1011C000224B1B68214A43F4804313601F4B1B686A
:1011D00003F480437B607B6802233B620123FB6254
:1011E00010233B630223BB630023FB6308233B64A0
:1011F00050237B640223BB640423FB6407F12003B8
:10120000184602F05FFB0346002B01D000F0DCFA29
:101210000F23FB6002233B6100237B614FF480536B
:10122000BB614FF48053FB6107F10C0302211846A8
:1012300002F0C0FD0346002B01D000F0C5FA00BF4C
:101240005037BD4680BD00BF0038024000700040EE
:1012500080B584B000AF3B4600221A605A609A60A5
:10126000DA60214B214A1A601F4B00225A601E4B44
:1012700000229A601C4B00221A611B4B00221A7636
:10128000194B002283F82020174B0022DA62164BFC
:10129000174A9A62144B0022DA60134B0122DA617A
:1012A000114B002283F830200F4B01225A610E4867
:1012B00000F068FD0346002B01D000F085FA022300
:1012C0003B6001237B600023BB603B461946064818
:1012D00000F006FF0346002B01D000F075FA00BFB6
:1012E0001037BD4680BD00BF8000002000200140B7
:1012F0000100000F80B500AF184B194A1A60174B58
:1013000005225A60154B00229A60144B4FF08072F0
:10131000DA60124B4FF420221A61104B4FF4401246
:101320005A610E4B00221A760C4B00225A760B4B58
:1013300000229A76094B0022DA76084B00221A77AF
:10134000064B00225A77054801F0E8F80346002BC7
:1013500001D000F039FA00BF80BD00BFC8000020F6
:101360000064004080B500AF184B194A1A60174B53
:1013700005225A60154B00229A60144B4FF0807280
:10138000DA60124B4FF420221A61104B4FF44012D6
:101390005A610E4B00221A760C4B00225A760B4BE8
:1013A00000229A76094B0022DA76084B00221A773F
:1013B000064B00225A77054801F0B0F80346002B8F
:1013C00001D000F001FA00BF80BD00BFF000002096
:1013D0000068004080B500AF114B124A1A60104BF4
:1013E0004FF4E1325A600E4B00229A600C4B0022FF
:1013F000DA600B4B00221A61094B0C225A61084B30
:1014000000229A61064B0022DA61054802F0F2FEE2
:101410000346002B01D000F0D7F900BF80BD00BF0C
:10142000180100200048004080B58AB000AF07F1E5
:10143000140300221A605A609A60DA601A6100236D
:101440003B61424B1B6B414A43F0040313633F4B28
:101450001B6B03F004033B613B690023FB603B4BC8
:101460001B6B3A4A43F080031363384B1B6B03F04A
:101470008003FB60FB680023BB60344B1B6B334A6B
:1014800043F001031363314B1B6B03F00103BB609B
:10149000BB6800237B602D4B1B6B2C4A43F002037F
:1014A00013632A4B1B6B03F002037B607B680022F3
:1014B0000121274802F0D4F942F2F0037B610023B6
:1014C000BB610123FB6107F114031946214802F0B7
:1014D0002BF801237B614FF40413BB610123FB61F3
:1014E00007F1140319461C4802F01EF802237B6121
:1014F0004FF48813BB610123FB6107F11403194604
:10150000154802F011F801237B610123BB61002320
:10151000FB6100233B6207F1140319460C4802F0FB
:1015200003F800220121062001F035FF062001F01A
:101530004EFF00220021072001F02DFF072001F0BF
:1015400046FF00BF2837BD4680BD00BF00380240BF
:1015500000040240000802400000024080B500AFD5
:101560001F4B0E225A621E4B00225A611C4B002256
:101570009A611B4B0122DA611A4B1B885B01184AE6
:101580001360174B00225A60154B4FF6E0729A60B9
:10159000134B0022DA60124B00221A61104B012219
:1015A0001A620F49104801F0B5F80F4801F092F99E
:1015B00002210D4801F0BFFB0C4B1B881A460C4B57
:1015C0001A600B4B00229A60094B0022DA60084B2C
:1015D00008221A61064B00221A7500BF80BD00BFA9
:1015E0007401002002000020C8000020000000203C
:1015F0005C01002080B500AF1D4B0E225A611C4BD0
:1016000000229A611A4B0122DA611A4B1B885B0196
:10161000174A1360164B00225A60154B4FF6E072C2
:101620009A60134B0022DA60114B00221A61104BB2
:1016300001221A620E49104801F06CF80E4801F0C0
:1016400049F902210C4801F076FB0C4B1B881A4625
:101650000B4B1A600A4B00229A60094B0022DA6099
:10166000074B08221A61064B00221A7500BF80BD85
:10167000B401002000000020F00000200200002043
:101680009C01002080B582B000AF786009E04FF087
:10169000FF3301227968074802F0F9FD7B680133C6
:1016A0007B607B681B78002BF1D100BF00BF08373F
:1016B000BD4680BD1801002080B594B000AF034640
:1016C0003960FB800023A7F84E302A4B1A6807F1D7
:1016D00008032949184603F005FEB864BB6C07F1FE
:1016E0000802D018FB88C3F30A031A46234903F003
:1016F000F9FD0246BB6C1344BB640023A7F84E30CF
:1017000015E0BB6C07F10802D018B7F84E303A6804
:1017100013441B781A461A4903F0E4FD0246BB6CD9
:101720001344BB64B7F84E300133A7F84E30B7F816
:101730004E30072BE5D9BB6C5A1CBA6450333B447E
:101740000D2203F8482CBB6C5A1CBA6450333B443E
:101750000A2203F8482C07F10802BB6C134400224C
:101760001A7007F108031846FFF78CFF00BF5037C7
:10177000BD4680BD08120020705C0008745C000843
:101780007C5C000880B582B000AF78600A4B1B8893
:101790001A460A4B19780A4B9954074B1B88013398
:1017A0009AB2054B1A8001220449064802F001FE54
:1017B00000BF0837BD4680BDDC010020E0110020DD
:1017C000E00100201801002080B400AF72B600BF15
:1017D00000BFFDE780B483B000AF00237B60104BF7
:1017E0005B6C0F4A43F4804353640D4B5B6C03F412
:1017F00080437B607B6800233B60094B1B6C084A7D
:1018000043F080531364064B1B6C03F080533B6022
:101810003B6800BF0C37BD465DF8047B704700BFD6
:101820000038024080B58AB000AF786007F1140339
:1018300000221A605A609A60DA601A617B681B683D
:10184000174A934227D100233B61164B5B6C154A24
:1018500043F480735364134B5B6C03F480733B61FC
:101860003B690023FB600F4B1B6B0E4A43F00103E7
:1018700013630C4B1B6B03F00103FB60FB68042339
:101880007B610323BB610023FB6107F1140319464D
:10189000054801F049FE00BF2837BD4680BD00BFA6
:1018A00000200140003802400000024080B58CB0AA
:1018B00000AF786007F11C0300221A605A609A603A
:1018C000DA601A617B681B684A4A93423ED14A4BF0
:1018D0001B680133484A1360474B1B68012B0DD12D
:1018E0000023BB61454B1B6C444A43F000731364F7
:1018F000424B1B6C03F00073BB61BB6900237B612F
:101900003E4B1B6B3D4A43F0010313633B4B1B6B88
:1019100003F001037B617B694FF4C053FB61022339
:101920003B6200237B620323BB620923FB6207F156
:101930001C031946324801F0F7FD00220221142051
:1019400001F029FD142001F042FD4FE07B681B6887
:101950002C4A93424AD100233B61284B1B6C274AF7
:1019600043F080631364254B1B6C03F080633B6181
:101970003B69214B1B6801331F4A13601E4B1B68D8
:10198000012B0DD10023FB601C4B1B6C1B4A43F049
:1019900000731364194B1B6C03F00073FB60FB684E
:1019A0000023BB60154B1B6B144A43F00203136307
:1019B000124B1B6B03F00203BB60BB686023FB612F
:1019C00002233B6200237B620323BB620923FB6289
:1019D00007F11C0319460C4801F0A6FD0022022164
:1019E000402001F0D8FC402001F0F1FC00BF30376E
:1019F000BD4680BD006400402C120020003802402B
:101A000000000240006800400004024080B58AB037
:101A100000AF786007F1140300221A605A609A60E0
:101A2000DA601A617B681B681D4A934234D1002337
:101A30003B611C4B1B6C1B4A43F480231364194B02
:101A40001B6C03F480233B613B690023FB60154B57
:101A50001B6B144A43F004031363124B1B6B03F01C
:101A60000403FB60FB684FF440637B610223BB61AE
:101A70000023FB6103233B6207237B6207F114030E
:101A80001946094801F050FD00220121272001F0EC
:101A900082FC272001F09BFC00BF2837BD4680BD9B
:101AA00000480040003802400008024080B400AF07
:101AB00000BFFDE780B400AF00BFFDE780B400AF1A
:101AC00000BFFDE780B400AF00BFFDE780B400AF0A
:101AD00000BFFDE780B400AF00BFBD465DF8047BEA
:101AE000704780B400AF00BFBD465DF8047B70470F
:101AF00080B400AF00BFBD465DF8047B70470000B6
:101B000080B500AF00F0FAF8034B1B680133024ABE
:101B1000136000BF80BD00BF0812002080B500AF79
:101B2000012001F0B7FE00BF80BD80B500AF0220EC
:101B300001F0B0FE00BF80BD80B500AF024801F0EB
:101B400020F900BF80BD00BFC800002080B500AFF5
:101B5000024802F05FFC00BF80BD00BF18010020FA
:101B600080B500AF024801F00CF900BF80BD00BF96
:101B7000F000002080B586B000AF7860144A154BA5
:101B8000D31A7B617B693B61134B1B68002B02D12D
:101B9000114B124A1A60104B1A687B6813443A6959
:101BA0009A4207D203F0D8FB03460C221A604FF08A
:101BB000FF3309E0084B1B68FB60074B1A687B6822
:101BC0001344054A1360FB6818461837BD4680BDAC
:101BD00000000220000400003012002080130020CA
:101BE00080B400AF064BD3F88830054A43F4700345
:101BF000C2F8883000BFBD465DF8047B704700BF67
:101C000000ED00E0DFF834D00D480E490E4A002305
:101C100002E0D458C4500433C4188C42F9D30B4AA0
:101C20000B4C002301E013600432A242FBD3FFF708
:101C3000D7FF03F097FBFFF769F970470000022018
:101C40000000002064000020E05C00086400002028
:101C500080130020FEE7000080B500AF0E4B1B682C
:101C60000D4A43F4007313600B4B1B680A4A43F49C
:101C700080631360084B1B68074A43F4807313604A
:101C8000032001F07DFB002000F008F8FFF7A2FD23
:101C90000023184680BD00BF003C024080B582B0E2
:101CA00000AF7860124B1A68124B1B7819464FF43C
:101CB0007A73B3FBF1F3B2FBF3F3184601F095FB33
:101CC0000346002B01D001230EE07B680F2B0AD8BE
:101CD000002279684FF0FF3001F05DFB064A7B6817
:101CE0001360002300E0012318460837BD4680BD7D
:101CF00008000020100000200C00002080B400AF7D
:101D0000064B1B781A46064B1B681344044A1360A3
:101D100000BFBD465DF8047B704700BF1000002087
:101D20003412002080B400AF034B1B681846BD4638
:101D30005DF8047B704700BF3412002080B584B08A
:101D400000AF7860FFF7EEFFB8607B68FB60FB6870
:101D5000B3F1FF3F05D00A4B1B781A46FB681344CA
:101D6000FB6000BFFFF7DEFF0246BB68D31AFA68CC
:101D70009A42F7D800BF00BF1037BD4680BD00BFF4
:101D80001000002080B584B000AF78600023FB73A2
:101D90007B68002B01D1012333E07B681B6C002B97
:101DA00009D17868FFF73EFD7B6800225A647B68A2
:101DB000002283F83C207B681B6C03F01003002B8F
:101DC00018D17B681B6C23F4885323F0020343F083
:101DD00002027B681A64786800F0A4FA7B6800222B
:101DE0005A647B681B6C23F0030343F001027B6899
:101DF0001A6401E00123FB737B68002283F83C2016
:101E0000FB7B18461037BD4680BD000080B485B00E
:101E100000AF78600023BB607B6893F83C30012BF7
:101E200001D10223B2E07B68012283F83C207B6869
:101E30001B689B6803F00103012B18D07B681B68AB
:101E40009A687B681B6842F001029A60524B1B68DB
:101E5000524AA2FB03239A0C13465B001344BB6057
:101E600002E0BB68013BBB60BB68002BF9D17B681B
:101E70001B689B6803F00103012B7AD17B681B6C04
:101E800023F4E06323F0010343F480727B681A6457
:101E90007B681B685B6803F48063002B07D07B685A
:101EA0001B6C23F4405343F480527B681A647B68B4
:101EB0001B6C03F48053B3F5805F06D17B685B6CC9
:101EC00023F006027B685A6402E07B6800225A64B1
:101ED0007B68002283F83C20314BFB607B681B68E9
:101EE0006FF022021A60FB685B6803F01F03002B8F
:101EF0002AD17B681B682B4A934215D07B681B68EC
:101F0000294A934205D1264B5B6803F01F03002B3F
:101F10000AD07B681B68254A934236D1204B5B6808
:101F200003F01003002B30D17B681B689B6803F023
:101F30004053002B29D17B681B689A687B681B681B
:101F400042F080429A6020E07B681B68154A934209
:101F50001BD17B681B689B6803F04053002B14D196
:101F60007B681B689A687B681B6842F080429A60B5
:101F70000BE07B681B6C43F010027B681A647B6883
:101F80005B6C43F001027B685A64002318461437E7
:101F9000BD465DF8047B70470800002083DE1B43CC
:101FA00000230140002001400021014000220140A7
:101FB00080B584B000AF786039600023FB607B6837
:101FC0001B689B6803F48063B3F5806F13D17B6853
:101FD0001B689B6803F48073B3F5807F0BD17B682B
:101FE0001B6C43F020027B681A647B68002283F834
:101FF0003C20012363E0FFF795FEF86021E03B6899
:10200000B3F1FF3F1DD03B68002B07D0FFF78AFEDE
:102010000246FB68D31A3A689A4212D27B681B6860
:102020001B6803F00203022B0BD07B681B6C43F090
:1020300004027B681A647B68002283F83C20032337
:102040003DE07B681B681B6803F00203022BD6D1BE
:102050007B681B686FF012021A607B681B6C43F48C
:1020600000727B681A647B681B689B6803F04053AE
:10207000002B23D17B681B7E002B1FD17B681B6844
:10208000DB6A03F47003002B06D07B681B689B6837
:1020900003F48063002B11D17B681B6C23F48072E6
:1020A0007B681A647B681B6C03F48053002B05D19A
:1020B0007B681B6C43F001027B681A64002318469E
:1020C0001037BD4680BD80B483B000AF78607B68B8
:1020D0001B68DB6C18460C37BD465DF8047B704707
:1020E00080B485B000AF786039600023BB607B6846
:1020F00093F83C30012B01D1022305E17B680122DA
:1021000083F83C203B681B68092B25D97B681B683A
:10211000D9683B681B689BB21A4613465B001344A0
:102120001E3B072202FA03F3DA437B681B680A406E
:10213000DA607B681B68D9683B689A683B681B68F3
:102140009BB2184603465B0003441E3B9A407B68E3
:102150001B680A43DA6022E07B681B6819693B68E8
:102160001B689BB21A4613465B001344072202FA0F
:1021700003F3DA437B681B680A401A617B681B68BB
:1021800019693B689A683B681B689BB2184603460E
:102190005B0003449A407B681B680A431A613B68F2
:1021A0005B68062B24D87B681B68596B3B685A68B0
:1021B00013469B001344053B1F2202FA03F3DA4344
:1021C0007B681B680A405A637B681B68596B3B68D5
:1021D0001B689BB218463B685A6813469B00134421
:1021E000053B00FA03F27B681B680A435A634CE024
:1021F0003B685B680C2B24D87B681B68196B3B68B9
:102200005A6813469B001344233B1F2202FA03F330
:10221000DA437B681B680A401A637B681B68196B8A
:102220003B681B689BB218463B685A6813469B0084
:102230001344233B00FA03F27B681B680A431A63CA
:1022400023E07B681B68D96A3B685A6813469B0089
:102250001344413B1F2202FA03F3DA437B681B68F5
:102260000A40DA627B681B68D96A3B681B689BB2CC
:1022700018463B685A6813469B001344413B00FADA
:1022800003F27B681B680A43DA62224BFB607B68BF
:102290001B68214A934209D13B681B68122B05D168
:1022A000FB685B6843F48002FB685A607B681B68CC
:1022B000194A934223D13B681B68102B03D03B681B
:1022C0001B68112B1BD1FB685B6843F40002FB68A1
:1022D0005A603B681B68102B11D1104B1B68104AC9
:1022E000A2FB03239A0C13469B0013445B00BB60C4
:1022F00002E0BB68013BBB60BB68002BF9D17B6887
:10230000002283F83C20002318461437BD465DF8B0
:10231000047B70470023014000200140080000209A
:1023200083DE1B4380B485B000AF7860794BFB60DF
:10233000FB685B6823F44032FB685A60FB685A68AC
:102340007B685B681A43FB685A607B681B685A6845
:102350007B681B6822F480725A607B681B6859682E
:102360007B681B691A027B681B680A435A607B689A
:102370001B685A687B681B6822F040725A607B6851
:102380001B6859687B689A687B681B680A435A60B7
:102390007B681B689A687B681B6822F400629A60FD
:1023A0007B681B6899687B68DA687B681B680A43EE
:1023B0009A607B689B6A584A934222D07B681B686C
:1023C0009A687B681B6822F070629A607B681B6861
:1023D00099687B689A6A7B681B680A439A607B6885
:1023E0001B689A687B681B6822F040529A607B6881
:1023F0001B6899687B68DA6A7B681B680A439A6085
:102400000FE07B681B689A687B681B6822F070622B
:102410009A607B681B689A687B681B6822F0405250
:102420009A607B681B689A687B681B6822F00202CE
:102430009A607B681B6899687B681B7E5A007B6882
:102440001B680A439A607B6893F82030002B1BD0EE
:102450007B681B685A687B681B6842F400625A609C
:102460007B681B685A687B681B6822F460425A606C
:102470007B681B6859687B685B6A013B5A037B6811
:102480001B680A435A6007E07B681B685A687B68D0
:102490001B6822F400625A607B681B68DA6A7B68FA
:1024A0001B6822F47002DA627B681B68D96A7B6859
:1024B000DB69013B1A057B681B680A43DA627B68AB
:1024C0001B689A687B681B6822F400729A607B68BC
:1024D0001B6899687B6893F830305A027B681B68E8
:1024E0000A439A607B681B689A687B681B6822F4C1
:1024F00080629A607B681B6899687B685B699A0256
:102500007B681B680A439A6000BF1437BD465DF8BC
:10251000047B7047002301400100000F80B584B0A8
:1025200000AF78607B68002B01D10123EDE07B6870
:1025300093F82030DBB2002B02D17868FFF7B6F9B0
:102540007B681B681A687B681B6842F001021A608E
:10255000FFF7E8FBF86012E0FFF7E4FB0246FB68D8
:10256000D31A0A2B0BD97B685B6A43F400327B6871
:102570005A627B68052283F820200123C5E07B682E
:102580001B685B6803F00103002BE5D07B681B68C8
:102590001A687B681B6822F002021A60FFF7C2FB10
:1025A000F86012E0FFF7BEFB0246FB68D31A0A2B65
:1025B0000BD97B685B6A43F400327B685A627B68A4
:1025C000052283F8202001239FE07B681B685B685D
:1025D00003F00203002BE5D17B681B7E012B08D1A1
:1025E0007B681B681A687B681B6842F080021A606F
:1025F00007E07B681B681A687B681B6822F0800212
:102600001A607B685B7E012B08D17B681B681A68A7
:102610007B681B6842F040021A6007E07B681B6819
:102620001A687B681B6822F040021A607B689B7EF8
:10263000012B08D17B681B681A687B681B6842F015
:1026400020021A6007E07B681B681A687B681B68B9
:1026500022F020021A607B68DB7E012B08D17B68A8
:102660001B681A687B681B6822F010021A6007E07A
:102670007B681B681A687B681B6842F010021A604E
:102680007B681B7F012B08D17B681B681A687B68FD
:102690001B6842F008021A6007E07B681B681A6832
:1026A0007B681B6822F008021A607B685B7F012B45
:1026B00008D17B681B681A687B681B6842F00402BB
:1026C0001A6007E07B681B681A687B681B6822F049
:1026D00004021A607B689A687B68DB681A437B682F
:1026E0001B691A437B685B6942EA03017B685B688C
:1026F0005A1E7B681B680A43DA617B6800225A62B3
:102700007B68012283F82020002318461037BD463D
:1027100080BD000080B487B000AF786039607B680E
:102720001B687B617B6893F82030FB74FB7C012B7A
:1027300003D0FB7C022B40F0BE80654B7B617B6944
:10274000D3F8003243F001027B69C3F800227B69B1
:10275000D3F8003223F47C527B69C3F800227B69F2
:10276000D3F800223B685B6A1B021A437B69C3F8FB
:1027700000223B685B6903F01F03012202FA03F3A6
:10278000FB607B69D3F81C22FB68DB431A407B6942
:10279000C3F81C223B68DB69002B23D17B69D3F88B
:1027A0000C22FB68DB431A407B69C3F80C223B68B0
:1027B000DB6819043B685B689BB23A68526919434D
:1027C0007B69483243F832103B689B6819043B68C8
:1027D0001B689AB23B685B690A4379694833DB003E
:1027E0000B445A603B68DB69012B22D17B69D3F82B
:1027F0000C22FB681A437B69C3F80C223B681B68F8
:1028000019043B685B689BB23A68526919437B695B
:10281000483243F832103B689B6819043B68DB6818
:102820009AB23B685B690A4379694833DB000B4421
:102830005A603B689B69002B09D17B69D3F804225D
:10284000FB68DB431A407B69C3F8042207E07B691D
:10285000D3F80422FB681A437B69C3F804223B685F
:102860001B69002B09D17B69D3F81422FB68DB4379
:102870001A407B69C3F8142207E07B69D3F814225D
:10288000FB681A437B69C3F814223B681B6A012B5F
:1028900007D17B69D3F81C22FB681A437B69C3F814
:1028A0001C227B69D3F8003223F001027B69C3F854
:1028B0000022002306E07B685B6A43F480227B6889
:1028C0005A62012318461C37BD465DF8047B7047E9
:1028D0000064004080B584B000AF78607B6893F8F6
:1028E0002030DBB2012B2ED17B68022283F820201E
:1028F0007B681B681A687B681B6822F001021A60FB
:10290000FFF710FAF86012E0FFF70CFA0246FB68D6
:10291000D31A0A2B0BD97B685B6A43F400327B68BD
:102920005A627B68052283F82020012312E07B682D
:102930001B685B6803F00103002BE5D17B68002274
:102940005A62002306E07B685B6A43F400227B68DE
:102950005A62012318461037BD4680BD80B489B045
:1029600000AFF860B9607A603B60FB6893F8203094
:10297000FB77FB681B689B68BB61FB7F012B03D067
:10298000FB7F022B40F0B880BB6903F08063002B13
:102990000AD1BB6903F00063002B05D1BB6903F0CA
:1029A0008053002B00F0A080BB691B0E03F00303D3
:1029B0007B617B69022B07D9FB685B6A43F40002E9
:1029C000FB685A6201239EE001227B699A403B68C2
:1029D0001A60BB689B68002B0DD1BB681B685A0549
:1029E000BB68DB68F96809681A437B6918331B0107
:1029F0000B441A600FE0BB685B68DA00BB689B6839
:102A00001A43BB68DB68F96809681A437B691833A5
:102A10001B010B441A60FB681968BB681A697B6963
:102A200018331B010B4404331A60BB681B7D012B58
:102A300011D1FB681A687B6918331B0113440433F6
:102A40001B68FA68116843F480727B6918331B01B4
:102A50000B4404331A607B6807331B781A067B68C3
:102A600006331B781B041A437B6805331B781B0253
:102A700013437A68043212781046FA68116843EA00
:102A800000027B691B010B4403F5C6731A607B6867
:102A900003331B781A067B6802331B781B041A4326
:102AA0007B6801331B781B0213437A681278104647
:102AB000FA68116843EA00027B691B010B4403F5C5
:102AC000C4731A60FB681A687B6918331B011344CE
:102AD0001B68FA68116843F001027B6918331B0117
:102AE0000B441A6000230EE0FB685B6A43F400129B
:102AF000FB685A62012306E0FB685B6A43F48022AC
:102B0000FB685A62012318462437BD465DF8047BF2
:102B1000704780B487B000AFF860B9607A603B60FE
:102B2000FB6893F82030FB75FB7D012B03D0FB7D08
:102B3000022B40F0F380BB68002B0ED1FB681B68B2
:102B4000DB6803F00303002B16D1FB685B6A43F4D8
:102B50000012FB685A620123E7E0FB681B681B69EF
:102B600003F00303002B07D1FB685B6A43F40012F8
:102B7000FB685A620123D8E0FB681A68BB681B3304
:102B80001B0113441B6803F004027B689A607B6896
:102B90009B68002B0CD1FB681A68BB681B331B01B8
:102BA00013441B685B0DC3F30A027B681A600BE0D9
:102BB000FB681A68BB681B331B0113441B68DB08E6
:102BC00023F060427B685A60FB681A68BB681B335D
:102BD0001B0113441B6803F002027B68DA60FB6888
:102BE0001A68BB681B331B01134404331B6803F0D2
:102BF0000F027B681A61FB681A68BB681B331B01F4
:102C0000134404331B681B0ADAB27B689A61FB68C1
:102C10001A68BB681B331B01134404331B681B0C6D
:102C20009AB27B685A61FB681A68BB681B0113443F
:102C300003F5DC731B68DAB23B681A70FB681A682C
:102C4000BB681B01134403F5DC731B681A0A3B685D
:102C50000133D2B21A70FB681A68BB681B011344B7
:102C600003F5DC731B681A0C3B680233D2B21A708E
:102C7000FB681A68BB681B01134403F5DC731B680F
:102C80001A0E3B680333D2B21A70FB681A68BB682D
:102C90001B01134403F5DE731A683B680433D2B298
:102CA0001A70FB681A68BB681B01134403F5DE73D6
:102CB0001B681A0A3B680533D2B21A70FB681A689F
:102CC000BB681B01134403F5DE731B681A0C3B68D9
:102CD0000633D2B21A70FB681A68BB681B01134432
:102CE00003F5DE731B681A0E3B680733D2B21A7005
:102CF000BB68002B08D1FB681B68DA68FB681B689F
:102D000042F02002DA6007E0FB681B681A69FB6882
:102D10001B6842F020021A61002306E0FB685B6A30
:102D200043F48022FB685A62012318461C37BD46D3
:102D30005DF8047B704780B485B000AF786039607F
:102D40007B6893F82030FB73FB7B012B02D0FB7B6D
:102D5000022B09D17B681B6859697B681B683A683C
:102D60000A435A61002306E07B685B6A43F48022D1
:102D70007B685A62012318461437BD465DF8047B10
:102D8000704780B58AB000AF786000237B627B68B3
:102D90001B685B693B627B681B685B68FB617B68E7
:102DA0001B689B68BB617B681B68DB687B617B6819
:102DB0001B681B693B617B681B689B69FB603B6A06
:102DC00003F00103002B7CD0BB6903F00103002B4F
:102DD00023D07B681B6801229A60BB6903F0020361
:102DE000002B03D0786800F083F916E0BB6903F08C
:102DF0000403002B04D07B6A43F400637B620CE085
:102E0000BB6903F00803002B04D07B6A43F48053B2
:102E10007B6202E0786800F089F9BB6903F4807393
:102E2000002B24D07B681B684FF480729A60BB69CA
:102E300003F40073002B03D0786800F063F916E008
:102E4000BB6903F48063002B04D07B6A43F4005316
:102E50007B620CE0BB6903F40063002B04D07B6A47
:102E600043F480437B6202E0786800F069F9BB6953
:102E700003F48033002B24D07B681B684FF480322E
:102E80009A60BB6903F40033002B03D0786800F02C
:102E900043F916E0BB6903F48023002B04D07B6A5E
:102EA00043F400437B620CE0BB6903F40023002B76
:102EB00004D07B6A43F480337B6202E0786800F0E0
:102EC00049F93B6A03F00803002B0CD07B6903F03F
:102ED0001003002B07D07B6A43F400737B627B688E
:102EE0001B681022DA603B6A03F00403002B0BD04E
:102EF0007B6903F00803002B06D07B681B6808225F
:102F0000DA60786800F030F93B6A03F00203002BC6
:102F100009D07B681B68DB6803F00303002B02D039
:102F20007868FDF70DFF3B6A03F04003002B0CD0DF
:102F30003B6903F01003002B07D07B6A43F48063E6
:102F40007B627B681B6810221A613B6A03F02003D6
:102F5000002B0BD03B6903F00803002B06D07B68E5
:102F60001B6808221A61786800F012F93B6A03F0C6
:102F70001003002B09D07B681B681B6903F0030357
:102F8000002B02D0786800F0F9F83B6A03F40033B4
:102F9000002B0BD0FB6903F01003002B06D07B68DD
:102FA0001B6810225A60786800F0FCF83B6A03F452
:102FB0008033002B0BD0FB6903F00803002B06D0F5
:102FC0007B681B6808225A60786800F0F5F83B6A55
:102FD00003F40043002B7BD0FB6903F00403002BB8
:102FE00072D03B6A03F48073002B08D0FB6803F0B7
:102FF0000103002B03D07B6A43F001037B623B6A31
:1030000003F40073002B08D0FB6803F00203002BCD
:1030100003D07B6A43F002037B623B6A03F4806364
:10302000002B08D0FB6803F00403002B03D07B6A5D
:1030300043F004037B623B6A03F40063002B43D03C
:10304000FB6803F07003002B3ED0FB6803F07003B5
:10305000602B2BD0602B2ED8502B22D0502B2AD86F
:10306000402B19D0402B26D8302B10D0302B22D813
:10307000102B02D0202B05D01DE07B6A43F0080303
:103080007B6219E07B6A43F010037B6214E07B6A89
:1030900043F020037B620FE07B6A43F040037B62D6
:1030A0000AE07B6A43F080037B6205E07B6A43F4BD
:1030B00080737B6200E000BF7B681B689A697B6855
:1030C0001B6822F070029A617B681B6804225A60B8
:1030D0007B6A002B08D07B685A6A7B6A1A437B683C
:1030E0005A62786800F072F800BF2837BD4680BD8C
:1030F00080B483B000AF786000BF0C37BD465DF888
:10310000047B704780B483B000AF786000BF0C3799
:10311000BD465DF8047B704780B483B000AF786033
:1031200000BF0C37BD465DF8047B704780B483B0A8
:1031300000AF786000BF0C37BD465DF8047B704778
:1031400080B483B000AF786000BF0C37BD465DF837
:10315000047B704780B483B000AF786000BF0C3749
:10316000BD465DF8047B704780B483B000AF7860E3
:1031700000BF0C37BD465DF8047B704780B483B058
:1031800000AF786000BF0C37BD465DF8047B704728
:1031900080B483B000AF786000BF0C37BD465DF8E7
:1031A000047B704780B483B000AF786000BF0C37F9
:1031B000BD465DF8047B704780B483B000AF786093
:1031C00000BF0C37BD465DF8047B704780B483B008
:1031D00000AF786000BF0C37BD465DF8047B7047D8
:1031E00080B485B000AF78607B6803F00703FB60B4
:1031F0000C4BDB68BB60BA684FF6FF031340BB6043
:10320000FB681A02BB68134343F0BF6343F4003307
:10321000BB60044ABB68D36000BF1437BD465DF88D
:10322000047B704700ED00E080B400AF044BDB6826
:103230001B0A03F007031846BD465DF8047B704780
:1032400000ED00E080B483B000AF0346FB7197F956
:103250000730002B0BDBFB7903F01F02074997F9BE
:1032600007305B09012000FA02F241F8232000BF79
:103270000C37BD465DF8047B704700BF00E100E0FD
:1032800080B483B000AF03463960FB7197F9073013
:10329000002B0ADB3B68DAB20C4997F907301201C0
:1032A000D2B20B4483F800230AE03B68DAB2084943
:1032B000FB7903F00F03043B1201D2B20B441A76E0
:1032C00000BF0C37BD465DF8047B704700E100E0AD
:1032D00000ED00E080B489B000AFF860B9607A60BA
:1032E000FB6803F00703FB61FB69C3F10703042BD1
:1032F00028BF0423BB61FB690433062B02D9FB6999
:10330000033B00E000237B614FF0FF32BB6902FA10
:1033100003F3DA43BB681A407B699A404FF0FF31F0
:103320007B6901FA03F3D9437B680B4013431846CA
:103330002437BD465DF8047B7047000080B582B03D
:1033400000AF78607B68013BB3F1807F01D301233C
:103350000FE00A4A7B68013B53600F214FF0FF30BA
:10336000FFF78EFF054B00229A60044B07221A607C
:10337000002318460837BD4680BD00BF10E000E0BE
:1033800080B582B000AF78607868FFF729FF00BF92
:103390000837BD4680BD80B586B000AF0346B96032
:1033A0007A60FB7300237B61FFF73EFF78617A68E8
:1033B000B9687869FFF78EFF024697F90F3011461A
:1033C0001846FFF75DFF00BF1837BD4680BD80B5CA
:1033D00082B000AF0346FB7197F907301846FFF73C
:1033E00031FF00BF0837BD4680BD80B582B000AF59
:1033F00078607868FFF7A2FF034618460837BD4695
:1034000080BD80B584B000AF78607B689B6DFB6049
:10341000FEF788FCB8607B6893F83530DBB2022B8E
:1034200008D07B6880225A657B68002283F83420AC
:10343000012352E07B681B681A687B681B6822F0D6
:1034400016021A607B681B685A697B681B6822F049
:1034500080025A617B681B6C002B03D17B689B6CDC
:10346000002B07D07B681B681A687B681B6822F0FA
:1034700008021A607B681B681A687B681B6822F068
:1034800001021A6013E0FEF74DFC0246BB68D31A36
:10349000052B0CD97B6820225A657B68032283F8B0
:1034A00035207B68002283F83420032315E07B68F5
:1034B0001B681B6803F00103002BE4D17B68DB6D04
:1034C0003F229A40FB689A607B68012283F835208E
:1034D0007B68002283F83420002318461037BD464D
:1034E00080BD80B483B000AF78607B6893F83530DE
:1034F000DBB2022B04D07B6880225A6501230CE0EA
:103500007B68052283F835207B681B681A687B6816
:103510001B6822F001021A60002318460C37BD46D2
:103520005DF8047B7047000080B489B000AF78601C
:10353000396000237B6100233B610023BB610023D2
:10354000FB616BE10122FB6902FA03F37B613B68DB
:103550001B687A6913403B613A697B699A4240F083
:103560005A813B685B6803F00303012B05D03B687D
:103570005B6803F00303022B30D17B689B68BB615F
:10358000FB695B00032202FA03F3DB43BA691340D1
:10359000BB613B68DA68FB695B0002FA03F3BA6956
:1035A0001343BB617B68BA699A607B685B68BB61E7
:1035B0000122FB6902FA03F3DB43BA691340BB61E2
:1035C0003B685B681B0903F00102FB6902FA03F325
:1035D000BA691343BB617B68BA695A603B685B6830
:1035E00003F00303032B17D07B68DB68BB61FB6927
:1035F0005B00032202FA03F3DB43BA691340BB61A9
:103600003B689A68FB695B0002FA03F3BA691343EB
:10361000BB617B68BA69DA603B685B6803F00303EF
:10362000022B23D1FB69DA087B68083253F8223079
:10363000BB61FB6903F007039B000F2202FA03F34F
:10364000DB43BA691340BB613B681A69FB6903F04D
:1036500007039B0002FA03F3BA691343BB61FB69DA
:10366000DA087B680832B96943F822107B681B6866
:10367000BB61FB695B00032202FA03F3DB43BA6917
:103680001340BB613B685B6803F00302FB695B00AE
:1036900002FA03F3BA691343BB617B68BA691A6023
:1036A0003B685B6803F44033002B00F0B4800023D8
:1036B000FB60604B5B6C5F4A43F4804353645D4B3B
:1036C0005B6C03F48043FB60FB685B4AFB699B080F
:1036D000023352F82330BB61FB6903F003039B0004
:1036E0000F2202FA03F3DB43BA691340BB617B6824
:1036F000524A93422BD07B68514A934225D07B6833
:10370000504A93421FD07B684F4A934219D07B683E
:103710004E4A934213D07B684D4A93420DD07B684A
:103720004C4A934207D07B684B4A934201D107230E
:103730000EE008230CE006230AE0052308E004233A
:1037400006E0032304E0022302E0012300E000235B
:10375000FA6902F0030292009340BA691343BB6115
:103760003549FB699B080233BA6941F823203B4B7A
:103770009B68BB613B69DB43BA691340BB613B6833
:103780005B6803F48013002B03D0BA693B691343D1
:10379000BB61324ABB699360304BDB68BB613B69FC
:1037A000DB43BA691340BB613B685B6803F40013F9
:1037B000002B03D0BA693B691343BB61274ABB693D
:1037C000D360264B5B68BB613B69DB43BA6913403E
:1037D000BB613B685B6803F40033002B03D0BA691C
:1037E0003B691343BB611D4ABB6953601B4B1B689C
:1037F000BB613B69DB43BA691340BB613B685B68F3
:1038000003F48033002B03D0BA693B691343BB61D7
:10381000124ABB691360FB690133FB61FB690F2B23
:103820007FF690AE00BF00BF2437BD465DF8047B35
:10383000704700BF003802400038014000000240DD
:103840000004024000080240000C02400010024048
:103850000014024000180240001C0240003C0140DD
:1038600080B483B000AF78600B467B8013467B70DA
:103870007B78002B03D07A887B689A6103E07B8891
:103880001A047B689A6100BF0C37BD465DF8047B63
:103890007047000080B582B000AF0346FB80084B44
:1038A0005A69FB881340002B06D0054AFB885361F8
:1038B000FB881846FDF700FB00BF0837BD4680BDFA
:1038C000003C014080B586B000AF78607B68002B7B
:1038D00001D1012367E27B681B6803F00103002B21
:1038E00075D0884B9B6803F00C03042B0CD0854BE0
:1038F0009B6803F00C03082B12D1824B5B6803F426
:103900008003B3F5800F0BD17E4B1B6803F40033AB
:10391000002B5BD07B685B68002B57D1012342E210
:103920007B685B68B3F5803F06D1764B1B68754AB0
:1039300043F4803313601DE07B685B68B3F5A02F10
:103940000CD1704B1B686F4A43F4802313606D4B9E
:103950001B686C4A43F4803313600BE0694B1B68AF
:10396000684A23F480331360664B1B68654A23F46E
:10397000802313607B685B68002B13D0FEF7D2F9BD
:10398000386108E0FEF7CEF902463B69D31A642B92
:1039900001D9032307E25B4B1B6803F40033002BC0
:1039A000F0D014E0FEF7BEF9386108E0FEF7BAF98E
:1039B00002463B69D31A642B01D90323F3E1514B2F
:1039C0001B6803F40033002BF0D100E000BF7B68DC
:1039D0001B6803F00203002B63D04A4B9B6803F083
:1039E0000C03002B0BD0474B9B6803F00C03082BF8
:1039F0001CD1444B5B6803F48003002B16D1414B70
:103A00001B6803F00203002B05D07B68DB68012BE9
:103A100001D00123C7E13B4B1B6823F0F8027B6810
:103A20001B69DB00374913430B603AE07B68DB68B6
:103A3000002B20D0344B01221A60FEF773F9386155
:103A400008E0FEF76FF902463B69D31A022B01D951
:103A50000323A8E12B4B1B6803F00203002BF0D0DB
:103A6000284B1B6823F0F8027B681B69DB002549A3
:103A700013430B6015E0244B00221A60FEF752F945
:103A8000386108E0FEF74EF902463B69D31A022B73
:103A900001D9032387E11B4B1B6803F00203002BB2
:103AA000F0D17B681B6803F00803002B36D07B68DD
:103AB0005B69002B16D0154B01221A60FEF732F914
:103AC000386108E0FEF72EF902463B69D31A022B53
:103AD00001D9032367E10B4B5B6F03F00203002B5B
:103AE000F0D01BE0094B00221A60FEF71BF9386189
:103AF0000EE0FEF717F902463B69D31A022B07D9ED
:103B0000032350E10038024000004742800E474244
:103B1000884B5B6F03F00203002BEAD17B681B68C4
:103B200003F00403002B00F097800023FB75814B0A
:103B30001B6C03F08053002B0FD10023BB607D4B27
:103B40001B6C7C4A43F0805313647A4B1B6C03F06C
:103B50008053BB60BB680123FB75774B1B6803F484
:103B60008073002B18D1744B1B68734A43F4807325
:103B70001360FEF7D7F8386108E0FEF7D3F8024685
:103B80003B69D31A022B01D903230CE16A4B1B6852
:103B900003F48073002BF0D07B689B68012B06D167
:103BA000644B1B6F634A43F0010313671CE07B689F
:103BB0009B68052B0CD15F4B1B6F5E4A43F00403DF
:103BC00013675C4B1B6F5B4A43F0010313670BE009
:103BD000584B1B6F574A23F001031367554B1B6F5C
:103BE000544A23F0040313677B689B68002B15D0AD
:103BF000FEF798F838610AE0FEF794F802463B6950
:103C0000D31A41F28832934201D90323CBE0494BC6
:103C10001B6F03F00203002BEED014E0FEF782F8D6
:103C200038610AE0FEF77EF802463B69D31A41F29A
:103C30008832934201D90323B5E03E4B1B6F03F05A
:103C40000203002BEED1FB7D012B05D1394B1B6C00
:103C5000384A23F0805313647B689B69002B00F083
:103C6000A180344B9B6803F00C03082B5CD07B686D
:103C70009B69022B41D1314B00221A60FEF752F8AA
:103C8000386108E0FEF74EF802463B69D31A022B72
:103C900001D9032387E0274B1B6803F00073002B37
:103CA000F0D17B68DA697B681B6A1A437B685B6AC0
:103CB0009B011A437B689B6A5B08013B1B041A4308
:103CC0007B68DB6A1B061B4913434B601B4B0122BD
:103CD0001A60FEF727F8386108E0FEF723F802467D
:103CE0003B69D31A022B01D903235CE0114B1B68FB
:103CF00003F00073002BF0D054E0104B00221A6048
:103D0000FEF710F8386108E0FEF70CF802463B6950
:103D1000D31A022B01D9032345E0064B1B6803F09D
:103D20000073002BF0D13DE07B689B69012B07D12C
:103D3000012338E000380240007000406000474234
:103D40001B4B5B68FB607B689B69012B28D0FB6881
:103D500003F480027B68DB699A4221D1FB6803F09F
:103D60003F027B681B6A9A421AD1FA6847F6C07311
:103D700013407A68526A9201934211D1FB6803F4AE
:103D800040327B689B6A5B08013B1B049A4207D167
:103D9000FB6803F070627B68DB6A1B069A4201D005
:103DA000012300E0002318461837BD4680BD00BF40
:103DB0000038024080B584B000AF786039607B681D
:103DC000002B01D10123CCE0684B1B6803F00703F3
:103DD0003A689A420CD9654B3A68D2B21A70634B72
:103DE0001B6803F007033A689A4201D00123B8E048
:103DF0007B681B6803F00203002B20D07B681B68E4
:103E000003F00403002B05D0594B9B68584A43F438
:103E1000E05393607B681B6803F00803002B05D018
:103E2000534B9B68524A43F460439360504B9B68EA
:103E300023F0F0027B689B684D4913438B607B68DD
:103E40001B6803F00103002B44D07B685B68012BE7
:103E500007D1474B1B6803F40033002B19D1012312
:103E60007FE07B685B68022B03D07B685B68032B79
:103E700007D13F4B1B6803F00073002B09D10123CE
:103E80006FE03B4B1B6803F00203002B01D10123C1
:103E900067E0374B9B6823F003027B685B6834491B
:103EA00013438B60FDF73EFFF8600AE0FDF73AFF31
:103EB0000246FB68D31A41F28832934201D90323A8
:103EC0004FE02B4B9B6803F00C027B685B689B0008
:103ED0009A42EBD1254B1B6803F007033A689A42DC
:103EE0000CD2224B3A68D2B21A70204B1B6803F0F6
:103EF00007033A689A4201D0012332E07B681B68CD
:103F000003F00403002B08D0194B9B6823F4E05204
:103F10007B68DB68164913438B607B681B6803F082
:103F20000803002B09D0124B9B6823F460427B6886
:103F30001B69DB000E4913438B6000F021F8024639
:103F40000B4B9B681B0903F00F030A49CB5C22FA59
:103F500003F3094A1360094B1B681846FDF79EFEE0
:103F6000002318461037BD4680BD00BF003C02400C
:103F700000380240845C0008080000200C0000208B
:103F80002DE9B04F94B000AF00237B640023FB64A5
:103F900000233B640023BB64794B9B6803F00C0354
:103FA000082B0DD0082B00F2E180002B02D0042B4F
:103FB00003D0DBE0734BBB64DBE0734BBB64D8E046
:103FC0006F4B5B6803F03F037B646D4B5B6803F4EE
:103FD0008003002B63D06A4B5B689B090022BB63A4
:103FE000FA63BB6BC3F308033B6300237B63D7E92E
:103FF0000C4522462B464FF000004FF000015901BE
:1040000041EAD261500102460B462146511A3961FC
:10401000294663EB01037B614FF000024FF0000380
:10402000D7E904AB59468B01514643EA91635146A7
:104030008A015146B2EB0108594663EB01094FF082
:1040400000024FF000034FEAC90343EA58734FEAF6
:10405000C80290469946234618EB0303BB602B46E3
:1040600049EB0303FB604FF000024FF00003D7E978
:10407000024529464B02214643EAD15321464A02D2
:10408000104619467B6C0022BB62FA62D7E90A230C
:10409000FCF7EEF802460B461346FB6458E0384B3B
:1040A0005B689B09002218461146C0F308033B6277
:1040B00000237B62D7E9088942464B464FF0000057
:1040C0004FF00001590141EAD261500102460B460E
:1040D0004146B2EB010A494663EB010B4FF0000287
:1040E0004FF000034FEA8B1343EA9A634FEA8A12B8
:1040F000B2EB0A0463EB0B054FF000024FF0000334
:10410000EB0043EA5473E20014461D464346E318AD
:104110003B604B4645EB03037B604FF000024FF0E2
:104120000003D7E9004529468B02214643EA915313
:1041300021468A02104619467B6C0022BB61FA6157
:10414000D7E90623FCF794F802460B461346FB64B6
:104150000B4B5B681B0C03F0030301335B003B64F8
:10416000FA6C3B6CB2FBF3F3BB6402E0054BBB643F
:1041700000BFBB6C18465037BD46BDE8B08F00BFCE
:10418000003802400024F40000127A0080B400AF2E
:10419000034B1B681846BD465DF8047B704700BFA3
:1041A0000800002080B500AFFFF7F0FF0246054B86
:1041B0009B689B0A03F007030349CB5C22FA03F3D5
:1041C000184680BD00380240945C000880B500AFFE
:1041D000FFF7DCFF0246054B9B685B0B03F0070310
:1041E0000349CB5C22FA03F3184680BD0038024035
:1041F000945C000880B582B000AF78607B68002BCB
:1042000001D101233FE07B6893F83D30DBB2002B06
:1042100006D17B68002283F83C207868FDF7F6FB26
:104220007B68242283F83D207B681B68DA687B6802
:104230001B6822F40052DA60786800F0DFFD7B68CA
:104240001B681A697B681B6822F490421A617B68BC
:104250001B685A697B681B6822F02A025A617B68D6
:104260001B68DA687B681B6842F40052DA607B687E
:1042700000221A647B68202283F83D207B6820227C
:1042800083F83E20002318460837BD4680BD80B520
:104290008AB002AFF860B9603B601346FB80002330
:1042A0007B61FB6893F83D30DBB2202B7CD1BB688F
:1042B000002B02D0FB88002B01D1012375E0FB68A5
:1042C00093F83C30012B01D102236EE0FB68012200
:1042D00083F83C20FB6800221A64FB68212283F8E3
:1042E0003D20FDF71FFD7861FB68FA889A84FB6822
:1042F000FA88DA84FB689B68B3F5805F08D1FB68B5
:104300001B69002B04D10023FB61BB68BB6103E088
:10431000BB68FB610023BB61FB68002283F83C2083
:104320002AE03B6800937B6900228021F86800F056
:104330001FFB0346002B01D0032336E0FB69002B53
:104340000BD1BB691B881A46FB681B68C2F30802C5
:104350005A60BB690233BB6107E0FB691A78FB68EE
:104360001B685A60FB690133FB61FB68DB8C9BB205
:10437000013B9AB2FB68DA84FB68DB8C9BB2002BB2
:10438000CFD13B6800937B6900224021F86800F0A0
:10439000EFFA0346002B01D0032306E0FB6820223E
:1043A00083F83D20002300E0022318462037BD4655
:1043B00080BD80B584B000AFF860B9601346FB8063
:1043C000FB6893F83E30DBB2202B1DD1BB68002B7D
:1043D00002D0FB88002B01D1012316E0FB6893F883
:1043E0003C30012B01D102230FE0FB68012283F84E
:1043F0003C20FB6800221A63FB881A46B968F868FB
:1044000000F024FB034600E0022318461037BD46A7
:1044100080BD000080B5BAB000AF78607B681B68D3
:104420001B68C7F8E4307B681B68DB68C7F8E030BE
:104430007B681B685B69C7F8DC300023C7F8D8309D
:104440000023C7F8D430D7F8E43003F00F03C7F8DF
:10445000D830D7F8D830002B0FD1D7F8E43003F09C
:104460002003002B09D0D7F8E03003F02003002B05
:1044700003D0786800F007FC56E2D7F8D830002B5C
:1044800000F0DE80D7F8DC3003F00103002B06D10A
:10449000D7F8E03003F49073002B00F0D180D7F808
:1044A000E43003F00103002B0BD0D7F8E03003F425
:1044B0008073002B05D07B681B6C43F001027B6886
:1044C0001A64D7F8E43003F00403002B0BD0D7F8BC
:1044D000DC3003F00103002B05D07B681B6C43F03C
:1044E00002027B681A64D7F8E43003F00203002B61
:1044F0000BD0D7F8DC3003F00103002B05D07B682C
:104500001B6C43F004027B681A64D7F8E43003F0B4
:104510000803002B11D0D7F8E03003F02003002B64
:1045200005D1D7F8DC3003F00103002B05D07B6800
:104530001B6C43F008027B681A647B681B6C002BC1
:1045400000F0ED81D7F8E43003F02003002B08D011
:10455000D7F8E03003F02003002B02D0786800F099
:1045600092FB7B681B685B6903F04003402B0CBF28
:1045700001230023DBB2C7F8D4307B681B6C03F047
:104580000803002B03D1D7F8D430002B4FD0786824
:1045900000F09AFA7B681B685B6903F04003402BCC
:1045A00041D17B681B681433C7F89C30D7F89C3026
:1045B00053E8003FC7F89830D7F8983023F040030D
:1045C000C7F8D0307B681B681433D7F8D020C7F801
:1045D000A820C7F8A430D7F8A410D7F8A82041E83D
:1045E0000023C7F8A030D7F8A030002BD9D17B68C2
:1045F0009B6B002B13D07B689B6B7D4A1A657B6895
:104600009B6B1846FEF76DFF0346002B16D07B68A8
:104610009B6B1B6D7A68926B104698470EE078682A
:1046200000F090F90AE0786800F08CF906E078680C
:1046300000F088F97B6800221A6470E100BF6EE127
:104640007B681B6B012B40F04A81D7F8E43003F004
:104650001003002B00F04381D7F8E03003F0100383
:10466000002B00F03C810023BB607B681B681B684B
:10467000BB607B681B685B68BB60BB687B681B6852
:104680005B6903F04003402B40F0B4807B689B6B78
:104690001B685B68A7F8BE30B7F8BE30002B00F08F
:1046A00040817B689B8DB7F8BE209A4280F03981AB
:1046B0007B68B7F8BE20DA857B689B6BDB69B3F556
:1046C000807F00F088807B681B680C33C7F88830D7
:1046D000D7F8883053E8003FC7F88430D7F88430E3
:1046E00023F48073C7F8B8307B681B680C33D7F8A5
:1046F000B820C7F89420C7F89030D7F89010D7F8B2
:10470000942041E80023C7F88C30D7F88C30002B78
:10471000D9D17B681B6814337B677B6F53E8003FFC
:104720003B673B6F23F00103C7F8B4307B681B681D
:104730001433D7F8B420C7F88020FB67F96FD7F897
:10474000802041E80023BB67BB6F002BE1D17B6871
:104750001B6814333B663B6E53E8003FFB65FB6D03
:1047600023F04003C7F8B0307B681B681433D7F8D8
:10477000B020FA66BB66B96EFA6E41E800237B662C
:104780007B6E002BE3D17B68202283F83E207B6880
:1047900000221A637B681B680C33FB64FB6C53E8D4
:1047A000003FBB64BB6C23F01003C7F8AC307B68E0
:1047B0001B680C33D7F8AC20BA657B65796DBA6D90
:1047C00041E800233B653B6D002BE3D17B689B6B8D
:1047D0001846FEF716FE7B689A8D7B68DB8D9BB2D0
:1047E000D31A9BB21946786800F0B6F899E000BF7A
:1047F0008F4B00087B689A8D7B68DB8D9BB2D31A48
:10480000A7F8CE307B68DB8D9BB2002B00F08B804D
:10481000B7F8CE30002B00F086807B681B680C3325
:10482000BB63BB6B53E8003F7B637B6B23F49073EC
:10483000C7F8C8307B681B680C33D7F8C8207A6487
:104840003B64396C7A6C41E80023FB63FB6B002B03
:10485000E3D17B681B6814337B627B6A53E8003FBB
:104860003B623B6A23F00103C7F8C4307B681B68D6
:104870001433D7F8C4203A63FB62F96A3A6B41E813
:104880000023BB62BB6A002BE3D17B68202283F844
:104890003E207B6800221A637B681B680C333B61F7
:1048A0003B6953E8003FFB60FB6823F01003C7F847
:1048B000C0307B681B680C33D7F8C020FA61BB613D
:1048C000B969FA6941E800237B617B69002BE3D178
:1048D000B7F8CE301946786800F03EF823E0D7F8F4
:1048E000E43003F08003002B09D0D7F8E03003F068
:1048F0008003002B03D0786800F05DF914E0D7F84E
:10490000E43003F04003002B0ED0D7F8E03003F082
:104910004003002B08D0786800F09DF904E000BF48
:1049200002E000BF00E000BFE837BD4680BD00BF29
:1049300080B483B000AF786000BF0C37BD465DF82F
:10494000047B704780B483B000AF786000BF0C3741
:10495000BD465DF8047B704780B483B000AF7860DB
:104960000B467B8000BF0C37BD465DF8047B70476B
:1049700080B590B000AFF860B9603B601346FB7142
:1049800050E0BB6CB3F1FF3F4CD0BB6C002B07D0A9
:10499000FDF7C8F902463B68D31ABA6C9A4241D275
:1049A000FB681B680C33BB62BB6A53E8003F7B6249
:1049B0007B6A23F4D073FB63FB681B680C33FA6BD0
:1049C0007A633B63396B7A6B41E80023FB62FB6AD5
:1049D000002BE5D1FB681B6814337B617B6953E8CE
:1049E000003F3B613B6923F00103BB63FB681B682D
:1049F0001433BA6B3A62FB61F9693A6A41E8002301
:104A0000BB61BB69002BE5D1FB68202283F83D2008
:104A1000FB68202283F83E20FB68002283F83C20BC
:104A200003230FE0FB681B681A68BB681340BA6871
:104A30009A420CBF01230023DBB21A46FB799A424B
:104A40009FD0002318464037BD4680BD80B485B056
:104A500000AFF860B9601346FB80FB68BA689A62E1
:104A6000FB68FA889A85FB68FA88DA85FB68002279
:104A70001A64FB68222283F83E20FB68002283F838
:104A80003C20FB681B69002B07D0FB681B68DA68B9
:104A9000FB681B6842F48072DA60FB681B685A6925
:104AA000FB681B6842F001025A61FB681B68DA6808
:104AB000FB681B6842F02002DA60002318461437B6
:104AC000BD465DF8047B704780B495B000AF786058
:104AD0007B681B680C337B637B6B53E8003F3B6355
:104AE0003B6B23F49073FB647B681B680C33FA6C9C
:104AF0003A64FB63F96B3A6C41E80023BB63BB6B20
:104B0000002BE5D17B681B6814333B623B6A53E89A
:104B1000003FFB61FB6923F00103BB647B681B68FA
:104B20001433BA6CFA62BB62B96AFA6A41E80023CC
:104B30007B627B6A002BE5D17B681B6B012B19D153
:104B40007B681B680C33FB60FB6853E8003FBB606D
:104B5000BB6823F010037B647B681B680C337A6CA2
:104B6000BA617B617969BA6941E800233B613B69BD
:104B7000002BE5D17B68202283F83E207B68002251
:104B80001A6300BF5437BD465DF8047B704780B59B
:104B900084B000AF78607B689B6BFB60FB68002291
:104BA000DA85FB680022DA84F868FFF7CBFE00BFE5
:104BB0001037BD4680BD80B485B000AF78607B689B
:104BC00093F83D30DBB2212B3ED17B689B68B3F577
:104BD000805F14D17B681B69002B10D17B681B6A36
:104BE000FB60FB681B881A467B681B68C2F30802DF
:104BF0005A607B681B6A9A1C7B681A6208E07B68B3
:104C00001B6A591C7A6811621A787B681B685A60A3
:104C10007B68DB8C9BB2013B9BB27A681946D184DE
:104C2000002B0FD17B681B68DA687B681B6822F059
:104C30008002DA607B681B68DA687B681B6842F078
:104C40004002DA60002300E0022318461437BD4614
:104C50005DF8047B704780B582B000AF78607B68F8
:104C60001B68DA687B681B6822F04002DA607B68A8
:104C7000202283F83D207868FFF75AFE002318466B
:104C80000837BD4680BD80B58CB000AF78607B68CA
:104C900093F83E30DBB2222B40F0AB807B689B6800
:104CA000B3F5805F17D17B681B69002B13D10023FC
:104CB000FB627B689B6ABB627B681B685B689BB21C
:104CC000C3F308039AB2BB6A1A807B689B6A9A1C7A
:104CD0007B689A6226E07B689B6AFB620023BB626A
:104CE0007B689B68B3F5805F07D07B689B68002B6F
:104CF0000AD17B681B69002B06D17B681B685B6847
:104D0000DAB2FB6A1A7008E07B681B685B68DBB28A
:104D100003F07F03DAB2FB6A1A707B689B6A5A1C45
:104D20007B689A627B68DB8D9BB2013B9BB27A68A1
:104D30001946D185002B5AD17B681B68DA687B68DD
:104D40001B6822F02002DA607B681B68DA687B68E7
:104D50001B6822F48072DA607B681B685A697B6882
:104D60001B6822F001025A617B68202283F83E20F2
:104D70007B681B6B012B35D17B6800221A637B6833
:104D80001B680C337B617B6953E8003F3B613B69E7
:104D900023F010037B627B681B680C337A6A3A62EB
:104DA000FB61F9693A6A41E80023BB61BB69002BEA
:104DB000E5D17B681B681B6803F01003102B0AD138
:104DC0000023FB607B681B681B68FB607B681B68BB
:104DD0005B68FB60FB687B689B8D19467868FFF712
:104DE000BBFD02E07868FCF7CDFC002302E0002365
:104DF00000E0022318463037BD4680BD2DE9B04F94
:104E0000C0B000AFC7F8F400D7F8F4301B681B69D6
:104E100023F44050D7F8F430D968D7F8F4301A6842
:104E200040EA01031361D7F8F4309A68D7F8F430F8
:104E30001B691A43D7F8F4305B691A43D7F8F4308A
:104E4000DB691343C7F8F830D7F8F4301B68DB6828
:104E500023F4164121F00C01D7F8F4301A68D7F882
:104E6000F8300B43D360D7F8F4301B685B6923F448
:104E70004070D7F8F4309969D7F8F4301A6840EAEE
:104E800001035361D7F8F4301A688F4B9A4205D06A
:104E9000D7F8F4301A688D4B9A4204D1FFF796F98F
:104EA000C7F8FC0003E0FFF77DF9C7F8FC00D7F86E
:104EB000F430DB69B3F5004F40F00C81D7F8FC30DB
:104EC0000022C7F8E830C7F8EC20D7E93A45224677
:104ED0002B469118B9655B41FB65D7E9162321463E
:104EE00012EB0108294643EB01094FF000024FF095
:104EF00000034FEAC90343EA58734FEAC8029046D9
:104F00009946234618EB0303C7F8E0302B4649EBDC
:104F10000303C7F8E430D7F8F4305B680022C7F821
:104F2000D830C7F8DC20D7E936120B46DB183B65D2
:104F3000134642EB03037B65D7E91423D7E9380115
:104F4000FBF796F902460B46614BA3FB02235B0974
:104F50001C01D7F8FC300022C7F8D030C7F8D420A5
:104F6000D7E9348942464B469118B9645B41FB64EA
:104F7000D7E91223414612EB010A494643EB010BE4
:104F80004FF000024FF000034FEACB0343EA5A739D
:104F90004FEACA0292469B4643461AEB0303C7F800
:104FA000C8304B464BEB0303C7F8CC30D7F8F4308E
:104FB0005B680022C7F8C030C7F8C420D7E93012B8
:104FC0000B46DB183B64134642EB03037B64D7E9D3
:104FD0001023D7E93201FBF74BF902460B46114685
:104FE0003B4BA3FB01235B09642202FB03F3CB1AB7
:104FF000DB0003F13202364BA3FB02235B095B00AB
:1050000003F4F8731C44D7F8FC300022C7F8B8301A
:10501000C7F8BC20D7E92E8942464B469118B963A0
:105020005B41FB63D7E90E2341465118396349467A
:105030004B417B634FF000024FF00003D7E90CAB0C
:105040005946CB00514643EA51735146CA001046B7
:105050001946034642469B18C7F8B0304B460A46ED
:1050600042EB0303C7F8B430D7F8F4305B68002292
:10507000C7F8A830C7F8AC20D7E92A120B46DB18CE
:10508000BB62134642EB0303FB62D7E90A23D7E96D
:105090002C01FBF7EDF802460B460D4BA3FB021368
:1050A0005B09642101FB03F3D31ADB003233084AA6
:1050B000A2FB03235B0903F00702D7F8F4301B6857
:1050C00022449A6006E100BF001001400014014034
:1050D0001F85EB51D7F8FC300022C7F8A030C7F885
:1050E000A420D7E9288942464B46911839625B4192
:1050F0007B62D7E9082341465418494643EB010532
:105100004FF000024FF00003EB0043EA5473E2005B
:1051100014461D464346E318C7F898304B4645EB06
:105120000303C7F89C30D7F8F4305B680022C7F857
:105130009030C7F894204FF000024FF00003D7E9F9
:10514000244529468B00214643EA917321468A0073
:10515000D7E92601FBF78CF802460B46604BA3FB10
:1051600002235B091C01D7F8FC300022C7F8883005
:10517000C7F88C20D7E9228942464B469118B9617D
:105180005B41FB61D7E90623414651183961494625
:105190004B417B614FF000024FF00003D7E904ABB5
:1051A0005946CB00514643EA51735146CA00104656
:1051B0001946034642469B18C7F880304B460A46BC
:1051C00042EB0303C7F88430D7F8F4305B68002261
:1051D000BB67FA674FF000024FF00003D7E91E8962
:1051E00049468B00414643EA917341468A00D7E91C
:1051F0002001FBF73DF802460B461146384BA3FB56
:1052000001235B09642202FB03F3CB1A1B01323337
:10521000334AA2FB03235B0903F0F0031C44D7F8D5
:10522000FC3000223B677A67D7E91C8942464B462F
:105230009118B9605B41FB60D7E9022341465118E0
:10524000396049464B417B604FF000024FF000034C
:10525000D7E900AB5946CB00514643EA517351465A
:10526000CA0010461946034642469B18BB664B4689
:105270000A4642EB0303FB66D7F8F4305B68002272
:105280003B667A664FF000024FF00003D7E91889B9
:1052900049468B00414643EA917341468A00D7E96B
:1052A0001A01FAF7E5FF02460B460D4BA3FB02136A
:1052B0005B09642101FB03F3D31A1B013233084A53
:1052C000A2FB03235B0903F00F02D7F8F4301B683D
:1052D00022449A6000BF07F58077BD46BDE8B08FD5
:1052E0001F85EB510EB410B59DB01FAB0290069018
:1052F0006FF000410A48079104910A4953F8042BC2
:105300000591002402A9006801931B9400F0A4F900
:10531000029B1C701DB0BDE8104003B0704700BF79
:10532000140000200802FFFF10B50139024490422A
:1053300001D1002005E0037811F8014FA34201D00C
:10534000181B10BD0130F2E702440346934200D11E
:10535000704703F8011BF9E7014B1868704700BF5D
:105360001400002070B50D4D0D4C641BA4100026D8
:10537000A64209D10B4D0C4C00F064FC641BA41038
:105380000026A64205D170BD55F8043B984701366A
:10539000EEE755F8043B98470136F2E7D85C000881
:1053A000D85C0008D85C0008DC5C000870477047D7
:1053B00038B50546002941D051F8043C0C1F002B9C
:1053C000B8BFE41800F0E0F81D4A136833B9636011
:1053D00014602846BDE8384000F0DCB8A34208D984
:1053E000206821188B4201BF19685B680918216089
:1053F000EDE71A465B680BB1A342FAD91168501861
:10540000A0420BD120680144501883421160E0D1C2
:1054100018685B68536008441060DAE702D90C230F
:105420002B60D6E7206821188B4204BF19685B689F
:10543000636004BF091821605460CAE738BD00BF2B
:105440007C13002070B50F4E0C463168054611B92B
:1054500000F0A4FB30602146284600F09FFB431C6F
:1054600003D14FF0FF34204670BDC41C24F0030468
:10547000A042F8D0211A284600F090FB0130F2D16A
:10548000EFE700BF781300202DE9F843CD1C25F08D
:10549000030508350C2D38BF0C25002D064601DB11
:1054A000A94204D90C2333600020BDE8F883DFF85B
:1054B000D48000F069F8D8F800301C4644BB294677
:1054C0003046FFF7BFFF431C044658D1D8F80040D0
:1054D0002746002F43D1002C4BD023683946304655
:1054E00004EB030900F05AFB814542D121686D1A93
:1054F00029463046FFF7A6FF01303AD023682B44F7
:105500002360D8F800305A6862BBC8F800700FE01A
:105510002268521B20D40B2A17D96119A342256097
:1055200018BF5960636808BFC8F8001062514B602B
:10553000304600F02FF804F10B00231D20F0070087
:10554000C21A1CBF1B1AA350AFE76268A3420CBF6C
:10555000C8F800205A60EBE723466468AEE73C4693
:105560007F68B6E71A465B68A342FBD1002353600D
:10557000DEE70C233360304600F00CF894E705605A
:10558000D6E700BF7C1300200148FFF70FBF00BF24
:10559000741300200148FFF70ABF00BF74130020F6
:1055A0002DE9F0478E681F46BE420B6882460C46C6
:1055B00090462DD8B1F90C2012F4906F26D0656971
:1055C000096905EB4505A3EB010905EBD5757B1CC6
:1055D0004B446D109D4238BF1D46530527D52946C3
:1055E000FFF752FF064660B321694A4600F0E6FA2B
:1055F000A38923F4906343F08003A381266165614E
:105600004E44A5EB09052660A5603E46BE4200D982
:105610003E4620683246414600F0A6FAA3689B1B2E
:10562000A3602368334423600020BDE8F0872A4646
:1056300000F0D2FA06460028E0D121695046FFF773
:10564000B7FE0C23CAF80030A38943F04003A381BE
:105650004FF0FF30E9E700002DE9F04F98468B89C5
:105660001B069DB007460D46144610D50B6973B94D
:105670004021FFF709FF2860286130B90C233B6007
:105680004FF0FF301DB0BDE8F08F40236B61002369
:10569000099320238DF82930CDF80C803023DFF8D2
:1056A0009C818DF82A304FF0010923469A4613F861
:1056B000012B0AB1252AF9D1BAEB040B0BD05B46BA
:1056C000224629463846FFF76BFF013000F0A780DD
:1056D000099A5A4409929AF80030002B00F09F80F2
:1056E00000234FF0FF32CDE905230AF1010A0493AC
:1056F00007938DF853301A935446052214F8011B72
:105700004E48FAF765FD049AD8B9D00644BF202365
:105710008DF85330110744BF2B238DF853309AF87E
:1057200000302A2B15D0079A544600204FF00A0C5F
:10573000214611F8013B303B092B4BD9B0B1079200
:1057400014E0A0EB080309FA03F313430493A24601
:10575000D2E7039B191D1B680391002BBBBF5B4263
:1057600042F0020207930793B8BF049223782E2BCE
:105770000AD163782A2B32D1039B1A1D1B6803922E
:1057800043EAE37302340593DFF8C0A021780322D3
:105790005046FAF71DFD38B1049BA0EB0A004022E9
:1057A000824013430134049314F8011B24488DF8FC
:1057B00028100622FAF70CFD002836D0214B1BBB1F
:1057C000039B073323F0070308330393099B3344F8
:1057D00009936AE70CFB02320C460120A8E700237C
:1057E0000134059319464FF00A0C204610F8012B9E
:1057F000303A092A03D9002BC6D00591C4E70CFB27
:10580000012104460123F0E703AB00932A460E4B27
:1058100004A93846AFF30080421C0646D6D1AB89B6
:105820005B063FF52DAF09982CE703AB00932A46A2
:10583000054B04A9384600F079F8EDE79C5C0008B8
:10584000A65C000800000000A1550008A25C00084A
:105850002DE9F047164698468A680B69DDF82090D6
:105860009342B8BF1346336091F8432007460C4675
:105870000AB1013333602368990642BF33680233AB
:105880003360256815F0060506D104F1190AE368AE
:1058900032689B1AAB4226DC94F843302268003B06
:1058A00018BF012392062BD404F143024146384627
:1058B000C84701301ED02368226903F00603042B79
:1058C00002BFE5683368ED1AA3680CBF25EAE575E9
:1058D00000259342C4BF9B1AED1800261A34B54226
:1058E0001AD1002008E00123524641463846C847F5
:1058F000013003D14FF0FF30BDE8F0870135C6E736
:10590000E1185A1C302081F84300224494F84510D5
:1059100082F843100233C7E7012322464146384646
:10592000C8470130E6D00136D9E700002DE9FF472E
:105930000F7E0C9E782F914680460C469A4601F1C8
:10594000430207D8622F0AD8002F00F0D180582FC9
:1059500000F0B88004F1420684F842703AE0A7F102
:105960006303152BF6D801A151F823F0C55900089F
:10597000D9590008555900085559000855590008CB
:1059800055590008D95900085559000855590008BB
:105990005559000855590008D75A0008035A0008FD
:1059A000915A00085559000855590008F95A00083D
:1059B00055590008035A0008555900085559000860
:1059C000995A000833681A1D1B68326004F14206B8
:1059D00084F8423001239CE033682068191D31604F
:1059E000060601D51D6803E04506FBD5B3F9005056
:1059F000002D03DA2D236D4284F8433058480A23E2
:105A000011E021683368080653F8045B02D44906A4
:105A100048BFADB26F2F5248336014BF0A2308232A
:105A2000002184F843106668A660002E05DB21681B
:105A30002E4321F0040121604BD01646B5FBF3F153
:105A400003FB1157C75D06F8017D2F46BB420D468B
:105A5000F4D9082B0BD12368DF0708D523696168C7
:105A60009942DEBF302306F8013C06F1FF36921B57
:105A70002261CDF800A04B4603AA21464046FFF71D
:105A8000E7FE01304AD14FF0FF3004B0BDE8F087A7
:105A9000236843F0200323603248782784F8457058
:105AA000236831681F0651F8045B02D45F0648BFC3
:105AB000ADB23160D90744BF43F0200323601DB16C
:105AC0001023ADE72648E9E7236823F0200323608D
:105AD000F6E71646BDE7336825686169181D306032
